:020000020000FC
:020000001BC023
:100034000C94310008E00EBF0FEF0DBF0FEF0093DB
:10004400040001E60093070001E000936F0000E064
:1000540005B900E008B911E0789421D0FECF8FB73C
:100064008F931395123019F08F918FBF189510E06C
:10007400239525B93395353021F043954A3041F025
:10008400F3CF30E0459B02C0459801C0459AF5CFB7
:1000940040E0469B02C0469801C0459AF1CF08EF64
:1000A400009385000FE50093840000E00093800036
:1000B40005E000938100B09BFECF00E00093810037
:0800C40001E00093160008950D
:00000001FF
